:020000040800F2
:10000000080400200101000807030008430200085B
:10001000050300084901000825040008000000004D
:1000200000000000000000000000000025030008A0
:100030004B0100080000000009030008D10300087C
:100040001B0100081B0100081B0100081B01000820
:100050001B0100081B0100081B0100081B01000810
:100060001B0100081B0100081B0100081B01000800
:100070001B0100081B0100081B0100081B010008F0
:100080001B0100081B0100081B0100081B010008E0
:100090001B0100081B0100081B0100081B010008D0
:1000A0001B0100081B0100081B0100081B010008C0
:1000B0001B0100081B0100081B0100081B010008B0
:1000C0001B0100081B0100081B0100081B010008A0
:1000D0001B0100081B0100081B0100081B01000890
:1000E0001B0100081B0100081B010008DFF80CD0F1
:1000F00000F018F8004800474504000808040020F4
:100100000648804706480047FEE7FEE7FEE7FEE7B1
:10011000FEE7FEE7FEE7FEE7FEE7FEE7D5030008A1
:10012000ED000008064C074D06E0E06840F00103D2
:1001300094E8070098471034AC42F6D3FFF7DAFF93
:100140006404000884040008FEE7704700B5024616
:100150004FF47A7302E0184600F003F8521EFAD208
:1001600000BD00EBC000C1004FF0E0204161002164
:100170008161052101610169C903FCD50421016187
:100180007047F0B5CC78002204F00F03E40601D5E7
:100190008C7823430C784FF00F0C14F0FF0F4FF0C6
:1001A000010E1BD005680E880EFA02F42640A64206
:1001B00010D196000CFA06F725EA070703FA06F5B0
:1001C000CE783D43282E02D0482E02D002E0446172
:1001D00000E00461521C082AE5D305600A88FF2A62
:1001E0001CD94468002202F108060EFA06F50E88B2
:1001F0002E40AE420ED196000CFA06F7BC4303FA2D
:1002000006F7CE783C43282E00D14561CE78482EA3
:1002100000D10561521C082AE5D34460F0BD0246B6
:10022000002092680A4200D0012070470246002058
:10023000D2680A4200D001207047416170470161D5
:100240007047FEE770B50B4D002402212846FFF7EA
:10025000E6FF60B91420FFF779FF02212846FFF777
:10026000DEFF0028F9D01420FFF770FF012420469C
:1002700070BD0000000C014008B50121082000F00D
:1002800045F848208DF803000220ADF80000032057
:100290008DF8020069460248FFF773FF08BD0000B1
:1002A000000C014010B5094C04212046FFF7BEFFA9
:1002B00000284FF00401204603D0BDE81040FFF7AE
:1002C000BCBFBDE81040FFF7BABF00000008014006
:1002D00038B50121042000F019F810208DF8030032
:1002E0000420ADF800000320054C8DF8020069469B
:1002F0002046FFF746FF04212046FFF7A0FF38BD48
:1003000000080140FEE7704770470000044A0029DA
:10031000916901D0014300E0814391617047000081
:1003200000100240704700000CB5002226480092E1
:100330000192016841F4803101604FF4A0630168CB
:1003400001F4003101910099491C0091019911B902
:1003500000999942F3D10168890333D501210191B4
:100360001A490A6842F010020A600A6822F0030281
:100370000A600A6842F002020A604168416041680E
:100380004160416841F480614160416821F47C1121
:100390004160416841F4E8114160016841F08071B9
:1003A000016001688901FCD5416821F003014160C9
:1003B000416841F0020141604168C1F381010229B5
:1003C000FAD10CBD01920CBD001002400020024089
:1003D000704700000F4810B5016841F0010101604D
:1003E00041680D4A1140416001680C4A11400160AA
:1003F000016821F480210160416821F4FE0141601F
:100400004FF41F018160FFF78FFF05494FF0006037
:10041000086010BD001002400000FFF8FFFFF6FE6C
:1004200008ED00E0FEE702E008C8121F08C1002A3C
:10043000FAD170477047002001E001C1121F002A65
:10044000FBD17047FFF744FFFFF716FF044CFFF79F
:10045000F9FE20700128FAD1FFF724FFF7E700002A
:1004600000000020840400080000002004000000B8
:10047000260400088804000804000020040400008A
:08048000360400080000000032
:04000005080000ED02
:00000001FF
